{
  "_format": "hh-sol-artifact-1",
  "contractName": "Evoting",
  "sourceName": "contracts/Evoting.sol",
  "abi": [
    {
      "inputs": [],
      "stateMutability": "nonpayable",
      "type": "constructor"
    },
    {
      "anonymous": false,
      "inputs": [
        {
          "indexed": false,
          "internalType": "uint256",
          "name": "_id",
          "type": "uint256"
        },
        {
          "indexed": false,
          "internalType": "address",
          "name": "creator",
          "type": "address"
        },
        {
          "indexed": false,
          "internalType": "string",
          "name": "msg",
          "type": "string"
        }
      ],
      "name": "CreateEvent",
      "type": "event"
    },
    {
      "anonymous": false,
      "inputs": [
        {
          "indexed": false,
          "internalType": "uint256",
          "name": "_electionid",
          "type": "uint256"
        },
        {
          "indexed": false,
          "internalType": "address",
          "name": "voter",
          "type": "address"
        },
        {
          "indexed": false,
          "internalType": "string",
          "name": "msg",
          "type": "string"
        }
      ],
      "name": "VoteEvent",
      "type": "event"
    },
    {
      "inputs": [],
      "name": "admin",
      "outputs": [
        {
          "internalType": "address",
          "name": "",
          "type": "address"
        }
      ],
      "stateMutability": "view",
      "type": "function"
    },
    {
      "inputs": [
        {
          "internalType": "string",
          "name": "_electionname",
          "type": "string"
        },
        {
          "internalType": "uint256",
          "name": "_endDate",
          "type": "uint256"
        },
        {
          "internalType": "string[]",
          "name": "_candidatelist",
          "type": "string[]"
        },
        {
          "internalType": "address payable[]",
          "name": "_wallets",
          "type": "address[]"
        },
        {
          "internalType": "string[]",
          "name": "_uid",
          "type": "string[]"
        }
      ],
      "name": "createElection",
      "outputs": [],
      "stateMutability": "payable",
      "type": "function"
    },
    {
      "inputs": [
        {
          "internalType": "uint256",
          "name": "",
          "type": "uint256"
        }
      ],
      "name": "elections",
      "outputs": [
        {
          "internalType": "string",
          "name": "election_name",
          "type": "string"
        },
        {
          "internalType": "uint256",
          "name": "endDate",
          "type": "uint256"
        },
        {
          "internalType": "bool",
          "name": "status",
          "type": "bool"
        },
        {
          "internalType": "uint256",
          "name": "maxvotes",
          "type": "uint256"
        }
      ],
      "stateMutability": "view",
      "type": "function"
    },
    {
      "inputs": [
        {
          "internalType": "uint256",
          "name": "_electionid",
          "type": "uint256"
        }
      ],
      "name": "endElection",
      "outputs": [],
      "stateMutability": "nonpayable",
      "type": "function"
    },
    {
      "inputs": [
        {
          "internalType": "uint256",
          "name": "_electionid",
          "type": "uint256"
        }
      ],
      "name": "getElection",
      "outputs": [
        {
          "components": [
            {
              "internalType": "string",
              "name": "election_name",
              "type": "string"
            },
            {
              "internalType": "uint256",
              "name": "endDate",
              "type": "uint256"
            },
            {
              "internalType": "bool",
              "name": "status",
              "type": "bool"
            },
            {
              "internalType": "string[]",
              "name": "candidateNames",
              "type": "string[]"
            },
            {
              "internalType": "uint256[]",
              "name": "votes",
              "type": "uint256[]"
            },
            {
              "internalType": "uint256",
              "name": "maxvotes",
              "type": "uint256"
            }
          ],
          "internalType": "struct Evoting.Election",
          "name": "",
          "type": "tuple"
        }
      ],
      "stateMutability": "view",
      "type": "function"
    },
    {
      "inputs": [
        {
          "internalType": "uint256",
          "name": "_electionid",
          "type": "uint256"
        }
      ],
      "name": "getResults",
      "outputs": [
        {
          "internalType": "string[]",
          "name": "",
          "type": "string[]"
        },
        {
          "internalType": "uint256[]",
          "name": "",
          "type": "uint256[]"
        }
      ],
      "stateMutability": "view",
      "type": "function"
    },
    {
      "inputs": [
        {
          "internalType": "string",
          "name": "_uid",
          "type": "string"
        },
        {
          "internalType": "uint256",
          "name": "_electionid",
          "type": "uint256"
        },
        {
          "internalType": "string",
          "name": "_candidateName",
          "type": "string"
        }
      ],
      "name": "vote",
      "outputs": [],
      "stateMutability": "nonpayable",
      "type": "function"
    }
  ],
  "bytecode": "0x6080604052600160005534801561001557600080fd5b5033600160006101000a81548173ffffffffffffffffffffffffffffffffffffffff021916908373ffffffffffffffffffffffffffffffffffffffff160217905550612da4806100666000396000f3fe6080604052600436106100705760003560e01c80639d7107771161004e5780639d7107771461011c578063a49a035f14610159578063d47ec96914610175578063f851a4401461019e57610070565b80635e6fef011461007557806381a60c0d146100b55780639c98bcbb146100f3575b600080fd5b34801561008157600080fd5b5061009c60048036038101906100979190611964565b6101c9565b6040516100ac9493929190611a4b565b60405180910390f35b3480156100c157600080fd5b506100dc60048036038101906100d79190611964565b61028e565b6040516100ea929190611c61565b60405180910390f35b3480156100ff57600080fd5b5061011a60048036038101906101159190611964565b610568565b005b34801561012857600080fd5b50610143600480360381019061013e9190611964565b61077b565b6040516101509190611e33565b60405180910390f35b610173600480360381019061016e9190612191565b610a93565b005b34801561018157600080fd5b5061019c6004803603810190610197919061227c565b610eed565b005b3480156101aa57600080fd5b506101b36116ea565b6040516101c09190612328565b60405180910390f35b60026020528060005260406000206000915090508060000180546101ec90612372565b80601f016020809104026020016040519081016040528092919081815260200182805461021890612372565b80156102655780601f1061023a57610100808354040283529160200191610265565b820191906000526020600020905b81548152906001019060200180831161024857829003601f168201915b5050505050908060010154908060020160009054906101000a900460ff16908060050154905084565b60608082610349604051806020016040528060008152506002600084815260200190815260200160002060000180546102c690612372565b80601f01602080910402602001604051908101604052809291908181526020018280546102f290612372565b801561033f5780601f106103145761010080835404028352916020019161033f565b820191906000526020600020905b81548152906001019060200180831161032257829003601f168201915b5050505050611710565b15610389576040517f08c379a0000000000000000000000000000000000000000000000000000000008152600401610380906123ef565b60405180910390fd5b6002600085815260200190815260200160002060020160009054906101000a900460ff1615806103ce5750426002600086815260200190815260200160002060010154105b61040d576040517f08c379a00000000000000000000000000000000000000000000000000000000081526004016104049061245b565b60405180910390fd5b600260008581526020019081526020016000206003016002600086815260200190815260200160002060040181805480602002602001604051908101604052809291908181526020016000905b8282101561050657838290600052602060002001805461047990612372565b80601f01602080910402602001604051908101604052809291908181526020018280546104a590612372565b80156104f25780601f106104c7576101008083540402835291602001916104f2565b820191906000526020600020905b8154815290600101906020018083116104d557829003601f168201915b50505050508152602001906001019061045a565b5050505091508080548060200260200160405190810160405280929190818152602001828054801561055757602002820191906000526020600020905b815481526020019060010190808311610543575b505050505090509250925050915091565b806106206040518060200160405280600081525060026000848152602001908152602001600020600001805461059d90612372565b80601f01602080910402602001604051908101604052809291908181526020018280546105c990612372565b80156106165780601f106105eb57610100808354040283529160200191610616565b820191906000526020600020905b8154815290600101906020018083116105f957829003601f168201915b5050505050611710565b15610660576040517f08c379a0000000000000000000000000000000000000000000000000000000008152600401610657906123ef565b60405180910390fd5b600160009054906101000a900473ffffffffffffffffffffffffffffffffffffffff1673ffffffffffffffffffffffffffffffffffffffff163373ffffffffffffffffffffffffffffffffffffffff16146106f0576040517f08c379a00000000000000000000000000000000000000000000000000000000081526004016106e7906124ed565b60405180910390fd5b42600260008481526020019081526020016000206001015410610748576040517f08c379a000000000000000000000000000000000000000000000000000000000815260040161073f90612559565b60405180910390fd5b60006002600084815260200190815260200160002060020160006101000a81548160ff0219169083151502179055505050565b6107836117bb565b8161083b604051806020016040528060008152506002600084815260200190815260200160002060000180546107b890612372565b80601f01602080910402602001604051908101604052809291908181526020018280546107e490612372565b80156108315780601f1061080657610100808354040283529160200191610831565b820191906000526020600020905b81548152906001019060200180831161081457829003601f168201915b5050505050611710565b1561087b576040517f08c379a0000000000000000000000000000000000000000000000000000000008152600401610872906123ef565b60405180910390fd5b600260008481526020019081526020016000206040518060c00160405290816000820180546108a990612372565b80601f01602080910402602001604051908101604052809291908181526020018280546108d590612372565b80156109225780601f106108f757610100808354040283529160200191610922565b820191906000526020600020905b81548152906001019060200180831161090557829003601f168201915b50505050508152602001600182015481526020016002820160009054906101000a900460ff1615151515815260200160038201805480602002602001604051908101604052809291908181526020016000905b82821015610a2157838290600052602060002001805461099490612372565b80601f01602080910402602001604051908101604052809291908181526020018280546109c090612372565b8015610a0d5780601f106109e257610100808354040283529160200191610a0d565b820191906000526020600020905b8154815290600101906020018083116109f057829003601f168201915b505050505081526020019060010190610975565b50505050815260200160048201805480602002602001604051908101604052809291908181526020018280548015610a7857602002820191906000526020600020905b815481526020019060010190808311610a64575b50505050508152602001600582015481525050915050919050565b600160009054906101000a900473ffffffffffffffffffffffffffffffffffffffff1673ffffffffffffffffffffffffffffffffffffffff163373ffffffffffffffffffffffffffffffffffffffff1614610b23576040517f08c379a0000000000000000000000000000000000000000000000000000000008152600401610b1a906124ed565b60405180910390fd5b6000835167ffffffffffffffff811115610b4057610b3f611e5f565b5b604051908082528060200260200182016040528015610b6e5781602001602082028036833780820191505090505b50905060005b8451811015610bab576000828281518110610b9257610b91612579565b5b6020026020010181815250508080600101915050610b74565b506040518060c00160405280878152602001868152602001600115158152602001858152602001828152602001845181525060026000805481526020019081526020016000206000820151816000019081610c069190612754565b506020820151816001015560408201518160020160006101000a81548160ff0219169083151502179055506060820151816003019080519060200190610c4d9291906117f3565b506080820151816004019080519060200190610c6a92919061184c565b5060a082015181600501559050506000835134610c879190612884565b905060005b8451811015610d9257848181518110610ca857610ca7612579565b5b602002602001015173ffffffffffffffffffffffffffffffffffffffff166108fc839081150290604051600060405180830381858888f19350505050158015610cf5573d6000803e3d6000fd5b506004600080548152602001908152602001600020858281518110610d1d57610d1c612579565b5b60200260200101519080600181540180825580915050600190039060005260206000200160009091909190916101000a81548173ffffffffffffffffffffffffffffffffffffffff021916908373ffffffffffffffffffffffffffffffffffffffff1602179055508080600101915050610c8c565b5060005b8351811015610e27576005600080548152602001908152602001600020848281518110610dc657610dc5612579565b5b6020026020010151604051602001610dde91906128f1565b6040516020818303038152906040528051906020012090806001815401808255809150506001900390600052602060002001600090919091909150558080600101915050610d96565b506001600360008054815260200190815260200160002060003373ffffffffffffffffffffffffffffffffffffffff1673ffffffffffffffffffffffffffffffffffffffff16815260200190815260200160002060006101000a81548160ff0219169083151502179055507f404a61e93281ecc735415e844ed1f8ea2ce50da8178b308d9fb40e52a73bc6af60005433604051610ec592919061297a565b60405180910390a1600080815480929190610edf906129b6565b919050555050505050505050565b8183600160009054906101000a900473ffffffffffffffffffffffffffffffffffffffff1673ffffffffffffffffffffffffffffffffffffffff163373ffffffffffffffffffffffffffffffffffffffff1603610f7f576040517f08c379a0000000000000000000000000000000000000000000000000000000008152600401610f7690612a70565b60405180910390fd5b6003600083815260200190815260200160002060003373ffffffffffffffffffffffffffffffffffffffff1673ffffffffffffffffffffffffffffffffffffffff16815260200190815260200160002060009054906101000a900460ff1615801561103f57506006600083815260200190815260200160002060008260405160200161100b91906128f1565b60405160208183030381529060405280519060200120815260200190815260200160002060009054906101000a900460ff16155b61107e576040517f08c379a000000000000000000000000000000000000000000000000000000000815260040161107590612adc565b60405180910390fd5b60008060005b600460008681526020019081526020016000208054905081101561113a576004600086815260200190815260200160002081815481106110c7576110c6612579565b5b9060005260206000200160009054906101000a900473ffffffffffffffffffffffffffffffffffffffff1673ffffffffffffffffffffffffffffffffffffffff163373ffffffffffffffffffffffffffffffffffffffff160361112d576001925061113a565b8080600101915050611084565b5060005b60056000868152602001908152602001600020805490508110156111ce5760056000868152602001908152602001600020818154811061118157611180612579565b5b90600052602060002001548460405160200161119d91906128f1565b60405160208183030381529060405280519060200120036111c157600191506111ce565b808060010191505061113e565b508180156111d95750805b611218576040517f08c379a000000000000000000000000000000000000000000000000000000000815260040161120f90612b6e565b60405180910390fd5b856112d06040518060200160405280600081525060026000848152602001908152602001600020600001805461124d90612372565b80601f016020809104026020016040519081016040528092919081815260200182805461127990612372565b80156112c65780601f1061129b576101008083540402835291602001916112c6565b820191906000526020600020905b8154815290600101906020018083116112a957829003601f168201915b5050505050611710565b15611310576040517f08c379a0000000000000000000000000000000000000000000000000000000008152600401611307906123ef565b60405180910390fd5b6002600088815260200190815260200160002060020160009054906101000a900460ff1680156113555750426002600089815260200190815260200160002060010154115b611394576040517f08c379a000000000000000000000000000000000000000000000000000000000815260040161138b90612bda565b60405180910390fd5b6000805b600260008a8152602001908152602001600020600301805490508110156115e55761147d88600260008c815260200190815260200160002060030183815481106113e5576113e4612579565b5b9060005260206000200180546113fa90612372565b80601f016020809104026020016040519081016040528092919081815260200182805461142690612372565b80156114735780601f1061144857610100808354040283529160200191611473565b820191906000526020600020905b81548152906001019060200180831161145657829003601f168201915b5050505050611710565b156115d857600260008a815260200190815260200160002060040181815481106114aa576114a9612579565b5b9060005260206000200160008154809291906114c5906129b6565b91905055506001600360008b815260200190815260200160002060003373ffffffffffffffffffffffffffffffffffffffff1673ffffffffffffffffffffffffffffffffffffffff16815260200190815260200160002060006101000a81548160ff0219169083151502179055506001600660008b815260200190815260200160002060008c60405160200161155b91906128f1565b60405160208183030381529060405280519060200120815260200190815260200160002060006101000a81548160ff021916908315150217905550600191507f87ed54f97124098126086927aa595fbee5ef735a4debb13b63171c76c2b3ede689336040516115cb929190612c6c565b60405180910390a16115e5565b8080600101915050611398565b5080611626576040517f08c379a000000000000000000000000000000000000000000000000000000000815260040161161d90612d1a565b60405180910390fd5b60026000898152602001908152602001600020600501546116aa600260008b81526020019081526020016000206004018054806020026020016040519081016040528092919081815260200182805480156116a057602002820191906000526020600020905b81548152602001906001019080831161168c575b5050505050611769565b036116df576000600260008a815260200190815260200160002060020160006101000a81548160ff0219169083151502179055505b505050505050505050565b600160009054906101000a900473ffffffffffffffffffffffffffffffffffffffff1681565b60008160405160200161172391906128f1565b604051602081830303815290604052805190602001208360405160200161174a91906128f1565b6040516020818303038152906040528051906020012014905092915050565b6000806000905060005b83518110156117b15783818151811061178f5761178e612579565b5b6020026020010151826117a29190612d3a565b91508080600101915050611773565b5080915050919050565b6040518060c0016040528060608152602001600081526020016000151581526020016060815260200160608152602001600081525090565b82805482825590600052602060002090810192821561183b579160200282015b8281111561183a57825182908161182a9190612754565b5091602001919060010190611813565b5b5090506118489190611899565b5090565b828054828255906000526020600020908101928215611888579160200282015b8281111561188757825182559160200191906001019061186c565b5b50905061189591906118bd565b5090565b5b808211156118b957600081816118b091906118da565b5060010161189a565b5090565b5b808211156118d65760008160009055506001016118be565b5090565b5080546118e690612372565b6000825580601f106118f85750611917565b601f01602090049060005260206000209081019061191691906118bd565b5b50565b6000604051905090565b600080fd5b600080fd5b6000819050919050565b6119418161192e565b811461194c57600080fd5b50565b60008135905061195e81611938565b92915050565b60006020828403121561197a57611979611924565b5b60006119888482850161194f565b91505092915050565b600081519050919050565b600082825260208201905092915050565b60005b838110156119cb5780820151818401526020810190506119b0565b60008484015250505050565b6000601f19601f8301169050919050565b60006119f382611991565b6119fd818561199c565b9350611a0d8185602086016119ad565b611a16816119d7565b840191505092915050565b611a2a8161192e565b82525050565b60008115159050919050565b611a4581611a30565b82525050565b60006080820190508181036000830152611a6581876119e8565b9050611a746020830186611a21565b611a816040830185611a3c565b611a8e6060830184611a21565b95945050505050565b600081519050919050565b600082825260208201905092915050565b6000819050602082019050919050565b600082825260208201905092915050565b6000611adf82611991565b611ae98185611ac3565b9350611af98185602086016119ad565b611b02816119d7565b840191505092915050565b6000611b198383611ad4565b905092915050565b6000602082019050919050565b6000611b3982611a97565b611b438185611aa2565b935083602082028501611b5585611ab3565b8060005b85811015611b915784840389528151611b728582611b0d565b9450611b7d83611b21565b925060208a01995050600181019050611b59565b50829750879550505050505092915050565b600081519050919050565b600082825260208201905092915050565b6000819050602082019050919050565b611bd88161192e565b82525050565b6000611bea8383611bcf565b60208301905092915050565b6000602082019050919050565b6000611c0e82611ba3565b611c188185611bae565b9350611c2383611bbf565b8060005b83811015611c54578151611c3b8882611bde565b9750611c4683611bf6565b925050600181019050611c27565b5085935050505092915050565b60006040820190508181036000830152611c7b8185611b2e565b90508181036020830152611c8f8184611c03565b90509392505050565b611ca181611a30565b82525050565b600082825260208201905092915050565b6000611cc382611a97565b611ccd8185611ca7565b935083602082028501611cdf85611ab3565b8060005b85811015611d1b5784840389528151611cfc8582611b0d565b9450611d0783611b21565b925060208a01995050600181019050611ce3565b50829750879550505050505092915050565b600082825260208201905092915050565b6000611d4982611ba3565b611d538185611d2d565b9350611d5e83611bbf565b8060005b83811015611d8f578151611d768882611bde565b9750611d8183611bf6565b925050600181019050611d62565b5085935050505092915050565b600060c0830160008301518482036000860152611db98282611ad4565b9150506020830151611dce6020860182611bcf565b506040830151611de16040860182611c98565b5060608301518482036060860152611df98282611cb8565b91505060808301518482036080860152611e138282611d3e565b91505060a0830151611e2860a0860182611bcf565b508091505092915050565b60006020820190508181036000830152611e4d8184611d9c565b905092915050565b600080fd5b600080fd5b7f4e487b7100000000000000000000000000000000000000000000000000000000600052604160045260246000fd5b611e97826119d7565b810181811067ffffffffffffffff82111715611eb657611eb5611e5f565b5b80604052505050565b6000611ec961191a565b9050611ed58282611e8e565b919050565b600067ffffffffffffffff821115611ef557611ef4611e5f565b5b611efe826119d7565b9050602081019050919050565b82818337600083830152505050565b6000611f2d611f2884611eda565b611ebf565b905082815260208101848484011115611f4957611f48611e5a565b5b611f54848285611f0b565b509392505050565b600082601f830112611f7157611f70611e55565b5b8135611f81848260208601611f1a565b91505092915050565b600067ffffffffffffffff821115611fa557611fa4611e5f565b5b602082029050602081019050919050565b600080fd5b6000611fce611fc984611f8a565b611ebf565b90508083825260208201905060208402830185811115611ff157611ff0611fb6565b5b835b8181101561203857803567ffffffffffffffff81111561201657612015611e55565b5b8086016120238982611f5c565b85526020850194505050602081019050611ff3565b5050509392505050565b600082601f83011261205757612056611e55565b5b8135612067848260208601611fbb565b91505092915050565b600067ffffffffffffffff82111561208b5761208a611e5f565b5b602082029050602081019050919050565b600073ffffffffffffffffffffffffffffffffffffffff82169050919050565b60006120c78261209c565b9050919050565b6120d7816120bc565b81146120e257600080fd5b50565b6000813590506120f4816120ce565b92915050565b600061210d61210884612070565b611ebf565b905080838252602082019050602084028301858111156121305761212f611fb6565b5b835b81811015612159578061214588826120e5565b845260208401935050602081019050612132565b5050509392505050565b600082601f83011261217857612177611e55565b5b81356121888482602086016120fa565b91505092915050565b600080600080600060a086880312156121ad576121ac611924565b5b600086013567ffffffffffffffff8111156121cb576121ca611929565b5b6121d788828901611f5c565b95505060206121e88882890161194f565b945050604086013567ffffffffffffffff81111561220957612208611929565b5b61221588828901612042565b935050606086013567ffffffffffffffff81111561223657612235611929565b5b61224288828901612163565b925050608086013567ffffffffffffffff81111561226357612262611929565b5b61226f88828901612042565b9150509295509295909350565b60008060006060848603121561229557612294611924565b5b600084013567ffffffffffffffff8111156122b3576122b2611929565b5b6122bf86828701611f5c565b93505060206122d08682870161194f565b925050604084013567ffffffffffffffff8111156122f1576122f0611929565b5b6122fd86828701611f5c565b9150509250925092565b60006123128261209c565b9050919050565b61232281612307565b82525050565b600060208201905061233d6000830184612319565b92915050565b7f4e487b7100000000000000000000000000000000000000000000000000000000600052602260045260246000fd5b6000600282049050600182168061238a57607f821691505b60208210810361239d5761239c612343565b5b50919050565b7f4e6f207375636820656c656374696f6e20657869737400000000000000000000600082015250565b60006123d960168361199c565b91506123e4826123a3565b602082019050919050565b60006020820190508181036000830152612408816123cc565b9050919050565b7f54686520656c656374696f6e206973207374696c6c206f6e676f696e672e0000600082015250565b6000612445601e8361199c565b91506124508261240f565b602082019050919050565b6000602082019050818103600083015261247481612438565b9050919050565b7f4f6e6c79206f776e65722063616e20706572666f726d2074686973206163746960008201527f6f6e000000000000000000000000000000000000000000000000000000000000602082015250565b60006124d760228361199c565b91506124e28261247b565b604082019050919050565b60006020820190508181036000830152612506816124ca565b9050919050565b7f456c656374696f6e2068617320616c726561647920656e646564000000000000600082015250565b6000612543601a8361199c565b915061254e8261250d565b602082019050919050565b6000602082019050818103600083015261257281612536565b9050919050565b7f4e487b7100000000000000000000000000000000000000000000000000000000600052603260045260246000fd5b60008190508160005260206000209050919050565b60006020601f8301049050919050565b600082821b905092915050565b60006008830261260a7fffffffffffffffffffffffffffffffffffffffffffffffffffffffffffffffff826125cd565b61261486836125cd565b95508019841693508086168417925050509392505050565b6000819050919050565b600061265161264c6126478461192e565b61262c565b61192e565b9050919050565b6000819050919050565b61266b83612636565b61267f61267782612658565b8484546125da565b825550505050565b600090565b612694612687565b61269f818484612662565b505050565b5b818110156126c3576126b860008261268c565b6001810190506126a5565b5050565b601f821115612708576126d9816125a8565b6126e2846125bd565b810160208510156126f1578190505b6127056126fd856125bd565b8301826126a4565b50505b505050565b600082821c905092915050565b600061272b6000198460080261270d565b1980831691505092915050565b6000612744838361271a565b9150826002028217905092915050565b61275d82611991565b67ffffffffffffffff81111561277657612775611e5f565b5b6127808254612372565b61278b8282856126c7565b600060209050601f8311600181146127be57600084156127ac578287015190505b6127b68582612738565b86555061281e565b601f1984166127cc866125a8565b60005b828110156127f4578489015182556001820191506020850194506020810190506127cf565b86831015612811578489015161280d601f89168261271a565b8355505b6001600288020188555050505b505050505050565b7f4e487b7100000000000000000000000000000000000000000000000000000000600052601260045260246000fd5b7f4e487b7100000000000000000000000000000000000000000000000000000000600052601160045260246000fd5b600061288f8261192e565b915061289a8361192e565b9250826128aa576128a9612826565b5b828204905092915050565b600081905092915050565b60006128cb82611991565b6128d581856128b5565b93506128e58185602086016119ad565b80840191505092915050565b60006128fd82846128c0565b915081905092915050565b7f54686520656c656374696f6e20686173206265656e206372656174656420737560008201527f636365737366756c6c7900000000000000000000000000000000000000000000602082015250565b6000612964602a8361199c565b915061296f82612908565b604082019050919050565b600060608201905061298f6000830185611a21565b61299c6020830184612319565b81810360408301526129ad81612957565b90509392505050565b60006129c18261192e565b91507fffffffffffffffffffffffffffffffffffffffffffffffffffffffffffffffff82036129f3576129f2612855565b5b600182019050919050565b7f41646d696e2063616e6e6f7420706172746963697061746520696e207468652060008201527f656c656374696f6e000000000000000000000000000000000000000000000000602082015250565b6000612a5a60288361199c565b9150612a65826129fe565b604082019050919050565b60006020820190508181036000830152612a8981612a4d565b9050919050565b7f596f75206861766520616c726561647920766f74656400000000000000000000600082015250565b6000612ac660168361199c565b9150612ad182612a90565b602082019050919050565b60006020820190508181036000830152612af581612ab9565b9050919050565b7f5468697320616363636f756e74206973206e6f7420616c6c6f77656420746f2060008201527f766f746520696e2063757272656e7420656c656374696f6e0000000000000000602082015250565b6000612b5860388361199c565b9150612b6382612afc565b604082019050919050565b60006020820190508181036000830152612b8781612b4b565b9050919050565b7f54686520656c656374696f6e2068617320616c726561647920656e6465640000600082015250565b6000612bc4601e8361199c565b9150612bcf82612b8e565b602082019050919050565b60006020820190508181036000830152612bf381612bb7565b9050919050565b7f54686520766f746520686173206265656e2073756363657366756c6c7920726560008201527f6769737465726564000000000000000000000000000000000000000000000000602082015250565b6000612c5660288361199c565b9150612c6182612bfa565b604082019050919050565b6000606082019050612c816000830185611a21565b612c8e6020830184612319565b8181036040830152612c9f81612c49565b90509392505050565b7f4e6f20737563682063616e64696461746520657869737420666f72207468697360008201527f20656c656374696f6e0000000000000000000000000000000000000000000000602082015250565b6000612d0460298361199c565b9150612d0f82612ca8565b604082019050919050565b60006020820190508181036000830152612d3381612cf7565b9050919050565b6000612d458261192e565b9150612d508361192e565b9250828201905080821115612d6857612d67612855565b5b9291505056fea2646970667358221220e2f589be6e9b4e2090cdfab39fa78cc6ce31e8844cee11cbccc9341b5cf815f064736f6c63430008180033",
  "linkReferences": {},
  "deployedLinkReferences": {}
}