{
  "_format": "hh-sol-artifact-1",
  "contractName": "Evoting",
  "sourceName": "contracts/Evoting.sol",
  "abi": [
    {
      "inputs": [],
      "stateMutability": "nonpayable",
      "type": "constructor"
    },
    {
      "anonymous": false,
      "inputs": [
        {
          "indexed": false,
          "internalType": "uint256",
          "name": "_id",
          "type": "uint256"
        },
        {
          "indexed": false,
          "internalType": "address",
          "name": "creator",
          "type": "address"
        },
        {
          "indexed": false,
          "internalType": "string",
          "name": "msg",
          "type": "string"
        }
      ],
      "name": "CreateEvent",
      "type": "event"
    },
    {
      "anonymous": false,
      "inputs": [
        {
          "indexed": false,
          "internalType": "uint256",
          "name": "_electionid",
          "type": "uint256"
        },
        {
          "indexed": false,
          "internalType": "address",
          "name": "voter",
          "type": "address"
        },
        {
          "indexed": false,
          "internalType": "string",
          "name": "msg",
          "type": "string"
        }
      ],
      "name": "VoteEvent",
      "type": "event"
    },
    {
      "inputs": [],
      "name": "admin",
      "outputs": [
        {
          "internalType": "address",
          "name": "",
          "type": "address"
        }
      ],
      "stateMutability": "view",
      "type": "function"
    },
    {
      "inputs": [
        {
          "internalType": "string",
          "name": "_electionname",
          "type": "string"
        },
        {
          "internalType": "string",
          "name": "_electionDesc",
          "type": "string"
        },
        {
          "internalType": "string[]",
          "name": "_candidatelist",
          "type": "string[]"
        },
        {
          "internalType": "address payable[]",
          "name": "_wallets",
          "type": "address[]"
        },
        {
          "internalType": "string[]",
          "name": "_uid",
          "type": "string[]"
        }
      ],
      "name": "createElection",
      "outputs": [],
      "stateMutability": "payable",
      "type": "function"
    },
    {
      "inputs": [
        {
          "internalType": "uint256",
          "name": "",
          "type": "uint256"
        }
      ],
      "name": "elections",
      "outputs": [
        {
          "internalType": "uint256",
          "name": "electionid",
          "type": "uint256"
        },
        {
          "internalType": "string",
          "name": "election_name",
          "type": "string"
        },
        {
          "internalType": "string",
          "name": "election_desc",
          "type": "string"
        },
        {
          "internalType": "uint256",
          "name": "endDate",
          "type": "uint256"
        },
        {
          "internalType": "bool",
          "name": "status",
          "type": "bool"
        },
        {
          "internalType": "uint256",
          "name": "maxvotes",
          "type": "uint256"
        }
      ],
      "stateMutability": "view",
      "type": "function"
    },
    {
      "inputs": [
        {
          "internalType": "uint256",
          "name": "_electionid",
          "type": "uint256"
        }
      ],
      "name": "endElection",
      "outputs": [],
      "stateMutability": "nonpayable",
      "type": "function"
    },
    {
      "inputs": [],
      "name": "getAllElection",
      "outputs": [
        {
          "components": [
            {
              "internalType": "uint256",
              "name": "electionid",
              "type": "uint256"
            },
            {
              "internalType": "string",
              "name": "election_name",
              "type": "string"
            },
            {
              "internalType": "string",
              "name": "election_desc",
              "type": "string"
            },
            {
              "internalType": "uint256",
              "name": "endDate",
              "type": "uint256"
            },
            {
              "internalType": "bool",
              "name": "status",
              "type": "bool"
            },
            {
              "internalType": "string[]",
              "name": "candidateNames",
              "type": "string[]"
            },
            {
              "internalType": "uint256[]",
              "name": "votes",
              "type": "uint256[]"
            },
            {
              "internalType": "uint256",
              "name": "maxvotes",
              "type": "uint256"
            }
          ],
          "internalType": "struct Evoting.Election[]",
          "name": "",
          "type": "tuple[]"
        }
      ],
      "stateMutability": "view",
      "type": "function"
    },
    {
      "inputs": [
        {
          "internalType": "uint256",
          "name": "_electionid",
          "type": "uint256"
        }
      ],
      "name": "getElection",
      "outputs": [
        {
          "components": [
            {
              "internalType": "uint256",
              "name": "electionid",
              "type": "uint256"
            },
            {
              "internalType": "string",
              "name": "election_name",
              "type": "string"
            },
            {
              "internalType": "string",
              "name": "election_desc",
              "type": "string"
            },
            {
              "internalType": "uint256",
              "name": "endDate",
              "type": "uint256"
            },
            {
              "internalType": "bool",
              "name": "status",
              "type": "bool"
            },
            {
              "internalType": "string[]",
              "name": "candidateNames",
              "type": "string[]"
            },
            {
              "internalType": "uint256[]",
              "name": "votes",
              "type": "uint256[]"
            },
            {
              "internalType": "uint256",
              "name": "maxvotes",
              "type": "uint256"
            }
          ],
          "internalType": "struct Evoting.Election",
          "name": "",
          "type": "tuple"
        }
      ],
      "stateMutability": "view",
      "type": "function"
    },
    {
      "inputs": [
        {
          "internalType": "uint256",
          "name": "_electionid",
          "type": "uint256"
        }
      ],
      "name": "getResults",
      "outputs": [
        {
          "internalType": "string[]",
          "name": "",
          "type": "string[]"
        },
        {
          "internalType": "uint256[]",
          "name": "",
          "type": "uint256[]"
        }
      ],
      "stateMutability": "view",
      "type": "function"
    },
    {
      "inputs": [
        {
          "internalType": "address payable",
          "name": "recipient",
          "type": "address"
        }
      ],
      "name": "sendGas",
      "outputs": [],
      "stateMutability": "payable",
      "type": "function"
    },
    {
      "inputs": [
        {
          "internalType": "string",
          "name": "_uid",
          "type": "string"
        },
        {
          "internalType": "uint256",
          "name": "_electionid",
          "type": "uint256"
        },
        {
          "internalType": "string",
          "name": "_candidateName",
          "type": "string"
        }
      ],
      "name": "vote",
      "outputs": [],
      "stateMutability": "nonpayable",
      "type": "function"
    }
  ],
  "bytecode": "0x6080604052600160005534801561001557600080fd5b5033600160006101000a81548173ffffffffffffffffffffffffffffffffffffffff021916908373ffffffffffffffffffffffffffffffffffffffff160217905550613643806100666000396000f3fe6080604052600436106100865760003560e01c806381a60c0d1161005957806381a60c0d146101305780639c98bcbb1461016e5780639d71077714610197578063d47ec969146101d4578063f851a440146101fd57610086565b806347c2a64e1461008b5780635597f083146100a75780635e6fef01146100d25780637883e6a714610114575b600080fd5b6100a560048036038101906100a091906122a3565b610228565b005b3480156100b357600080fd5b506100bc6106c0565b6040516100c99190612755565b60405180910390f35b3480156100de57600080fd5b506100f960048036038101906100f491906127a3565b610a1d565b60405161010b96959493929190612838565b60405180910390f35b61012e600480360381019061012991906128a7565b610b76565b005b34801561013c57600080fd5b50610157600480360381019061015291906127a3565b610c64565b6040516101659291906129c9565b60405180910390f35b34801561017a57600080fd5b50610195600480360381019061019091906127a3565b610f3e565b005b3480156101a357600080fd5b506101be60048036038101906101b991906127a3565b611151565b6040516101cb9190612ac5565b60405180910390f35b3480156101e057600080fd5b506101fb60048036038101906101f69190612ae7565b611506565b005b34801561020957600080fd5b50610212611d03565b60405161021f9190612b93565b60405180910390f35b600160009054906101000a900473ffffffffffffffffffffffffffffffffffffffff1673ffffffffffffffffffffffffffffffffffffffff163373ffffffffffffffffffffffffffffffffffffffff16146102b8576040517f08c379a00000000000000000000000000000000000000000000000000000000081526004016102af90612c20565b60405180910390fd5b6000835167ffffffffffffffff8111156102d5576102d4611f71565b5b6040519080825280602002602001820160405280156103035781602001602082028036833780820191505090505b50905060005b845181101561034057600082828151811061032757610326612c40565b5b6020026020010181815250508080600101915050610309565b50604051806101000160405280600054815260200187815260200186815260200163039ada00426103719190612c9e565b8152602001600115158152602001858152602001828152602001845181525060026000805481526020019081526020016000206000820151816000015560208201518160010190816103c39190612ede565b5060408201518160020190816103d99190612ede565b506060820151816003015560808201518160040160006101000a81548160ff02191690831515021790555060a0820151816005019080519060200190610420929190611dd4565b5060c082015181600601908051906020019061043d929190611e2d565b5060e08201518160070155905050600083513461045a9190612fdf565b905060005b84518110156105655784818151811061047b5761047a612c40565b5b602002602001015173ffffffffffffffffffffffffffffffffffffffff166108fc839081150290604051600060405180830381858888f193505050501580156104c8573d6000803e3d6000fd5b5060046000805481526020019081526020016000208582815181106104f0576104ef612c40565b5b60200260200101519080600181540180825580915050600190039060005260206000200160009091909190916101000a81548173ffffffffffffffffffffffffffffffffffffffff021916908373ffffffffffffffffffffffffffffffffffffffff160217905550808060010191505061045f565b5060005b83518110156105fa57600560008054815260200190815260200160002084828151811061059957610598612c40565b5b60200260200101516040516020016105b1919061304c565b6040516020818303038152906040528051906020012090806001815401808255809150506001900390600052602060002001600090919091909150558080600101915050610569565b506001600360008054815260200190815260200160002060003373ffffffffffffffffffffffffffffffffffffffff1673ffffffffffffffffffffffffffffffffffffffff16815260200190815260200160002060006101000a81548160ff0219169083151502179055507f404a61e93281ecc735415e844ed1f8ea2ce50da8178b308d9fb40e52a73bc6af600054336040516106989291906130d5565b60405180910390a16000808154809291906106b290613111565b919050555050505050505050565b60606000805467ffffffffffffffff8111156106df576106de611f71565b5b60405190808252806020026020018201604052801561071857816020015b610705611e7a565b8152602001906001900390816106fd5790505b5090506000600190505b6000548111610a155760026000828152602001908152602001600020604051806101000160405290816000820154815260200160018201805461076490612d01565b80601f016020809104026020016040519081016040528092919081815260200182805461079090612d01565b80156107dd5780601f106107b2576101008083540402835291602001916107dd565b820191906000526020600020905b8154815290600101906020018083116107c057829003601f168201915b505050505081526020016002820180546107f690612d01565b80601f016020809104026020016040519081016040528092919081815260200182805461082290612d01565b801561086f5780601f106108445761010080835404028352916020019161086f565b820191906000526020600020905b81548152906001019060200180831161085257829003601f168201915b50505050508152602001600382015481526020016004820160009054906101000a900460ff1615151515815260200160058201805480602002602001604051908101604052809291908181526020016000905b8282101561096e5783829060005260206000200180546108e190612d01565b80601f016020809104026020016040519081016040528092919081815260200182805461090d90612d01565b801561095a5780601f1061092f5761010080835404028352916020019161095a565b820191906000526020600020905b81548152906001019060200180831161093d57829003601f168201915b5050505050815260200190600101906108c2565b505050508152602001600682018054806020026020016040519081016040528092919081815260200182805480156109c557602002820191906000526020600020905b8154815260200190600101908083116109b1575b50505050508152602001600782015481525050826001836109e69190613159565b815181106109f7576109f6612c40565b5b60200260200101819052508080610a0d90613111565b915050610722565b508091505090565b6002602052806000526040600020600091509050806000015490806001018054610a4690612d01565b80601f0160208091040260200160405190810160405280929190818152602001828054610a7290612d01565b8015610abf5780601f10610a9457610100808354040283529160200191610abf565b820191906000526020600020905b815481529060010190602001808311610aa257829003601f168201915b505050505090806002018054610ad490612d01565b80601f0160208091040260200160405190810160405280929190818152602001828054610b0090612d01565b8015610b4d5780601f10610b2257610100808354040283529160200191610b4d565b820191906000526020600020905b815481529060010190602001808311610b3057829003601f168201915b5050505050908060030154908060040160009054906101000a900460ff16908060070154905086565b600160009054906101000a900473ffffffffffffffffffffffffffffffffffffffff1673ffffffffffffffffffffffffffffffffffffffff163373ffffffffffffffffffffffffffffffffffffffff1614610c06576040517f08c379a0000000000000000000000000000000000000000000000000000000008152600401610bfd90612c20565b60405180910390fd5b670de0b6b3a76400003414610c1a57600080fd5b8073ffffffffffffffffffffffffffffffffffffffff166108fc349081150290604051600060405180830381858888f19350505050158015610c60573d6000803e3d6000fd5b5050565b60608082610d1f60405180602001604052806000815250600260008481526020019081526020016000206001018054610c9c90612d01565b80601f0160208091040260200160405190810160405280929190818152602001828054610cc890612d01565b8015610d155780601f10610cea57610100808354040283529160200191610d15565b820191906000526020600020905b815481529060010190602001808311610cf857829003601f168201915b5050505050611d29565b15610d5f576040517f08c379a0000000000000000000000000000000000000000000000000000000008152600401610d56906131d9565b60405180910390fd5b6002600085815260200190815260200160002060040160009054906101000a900460ff161580610da45750426002600086815260200190815260200160002060030154105b610de3576040517f08c379a0000000000000000000000000000000000000000000000000000000008152600401610dda90613245565b60405180910390fd5b600260008581526020019081526020016000206005016002600086815260200190815260200160002060060181805480602002602001604051908101604052809291908181526020016000905b82821015610edc578382906000526020600020018054610e4f90612d01565b80601f0160208091040260200160405190810160405280929190818152602001828054610e7b90612d01565b8015610ec85780601f10610e9d57610100808354040283529160200191610ec8565b820191906000526020600020905b815481529060010190602001808311610eab57829003601f168201915b505050505081526020019060010190610e30565b50505050915080805480602002602001604051908101604052809291908181526020018280548015610f2d57602002820191906000526020600020905b815481526020019060010190808311610f19575b505050505090509250925050915091565b80610ff660405180602001604052806000815250600260008481526020019081526020016000206001018054610f7390612d01565b80601f0160208091040260200160405190810160405280929190818152602001828054610f9f90612d01565b8015610fec5780601f10610fc157610100808354040283529160200191610fec565b820191906000526020600020905b815481529060010190602001808311610fcf57829003601f168201915b5050505050611d29565b15611036576040517f08c379a000000000000000000000000000000000000000000000000000000000815260040161102d906131d9565b60405180910390fd5b600160009054906101000a900473ffffffffffffffffffffffffffffffffffffffff1673ffffffffffffffffffffffffffffffffffffffff163373ffffffffffffffffffffffffffffffffffffffff16146110c6576040517f08c379a00000000000000000000000000000000000000000000000000000000081526004016110bd90612c20565b60405180910390fd5b4260026000848152602001908152602001600020600301541161111e576040517f08c379a0000000000000000000000000000000000000000000000000000000008152600401611115906132b1565b60405180910390fd5b60006002600084815260200190815260200160002060040160006101000a81548160ff0219169083151502179055505050565b611159611e7a565b816112116040518060200160405280600081525060026000848152602001908152602001600020600101805461118e90612d01565b80601f01602080910402602001604051908101604052809291908181526020018280546111ba90612d01565b80156112075780601f106111dc57610100808354040283529160200191611207565b820191906000526020600020905b8154815290600101906020018083116111ea57829003601f168201915b5050505050611d29565b15611251576040517f08c379a0000000000000000000000000000000000000000000000000000000008152600401611248906131d9565b60405180910390fd5b60026000848152602001908152602001600020604051806101000160405290816000820154815260200160018201805461128a90612d01565b80601f01602080910402602001604051908101604052809291908181526020018280546112b690612d01565b80156113035780601f106112d857610100808354040283529160200191611303565b820191906000526020600020905b8154815290600101906020018083116112e657829003601f168201915b5050505050815260200160028201805461131c90612d01565b80601f016020809104026020016040519081016040528092919081815260200182805461134890612d01565b80156113955780601f1061136a57610100808354040283529160200191611395565b820191906000526020600020905b81548152906001019060200180831161137857829003601f168201915b50505050508152602001600382015481526020016004820160009054906101000a900460ff1615151515815260200160058201805480602002602001604051908101604052809291908181526020016000905b8282101561149457838290600052602060002001805461140790612d01565b80601f016020809104026020016040519081016040528092919081815260200182805461143390612d01565b80156114805780601f1061145557610100808354040283529160200191611480565b820191906000526020600020905b81548152906001019060200180831161146357829003601f168201915b5050505050815260200190600101906113e8565b505050508152602001600682018054806020026020016040519081016040528092919081815260200182805480156114eb57602002820191906000526020600020905b8154815260200190600101908083116114d7575b50505050508152602001600782015481525050915050919050565b8183600160009054906101000a900473ffffffffffffffffffffffffffffffffffffffff1673ffffffffffffffffffffffffffffffffffffffff163373ffffffffffffffffffffffffffffffffffffffff1603611598576040517f08c379a000000000000000000000000000000000000000000000000000000000815260040161158f90613343565b60405180910390fd5b6003600083815260200190815260200160002060003373ffffffffffffffffffffffffffffffffffffffff1673ffffffffffffffffffffffffffffffffffffffff16815260200190815260200160002060009054906101000a900460ff16158015611658575060066000838152602001908152602001600020600082604051602001611624919061304c565b60405160208183030381529060405280519060200120815260200190815260200160002060009054906101000a900460ff16155b611697576040517f08c379a000000000000000000000000000000000000000000000000000000000815260040161168e906133af565b60405180910390fd5b60008060005b6004600086815260200190815260200160002080549050811015611753576004600086815260200190815260200160002081815481106116e0576116df612c40565b5b9060005260206000200160009054906101000a900473ffffffffffffffffffffffffffffffffffffffff1673ffffffffffffffffffffffffffffffffffffffff163373ffffffffffffffffffffffffffffffffffffffff16036117465760019250611753565b808060010191505061169d565b5060005b60056000868152602001908152602001600020805490508110156117e75760056000868152602001908152602001600020818154811061179a57611799612c40565b5b9060005260206000200154846040516020016117b6919061304c565b60405160208183030381529060405280519060200120036117da57600191506117e7565b8080600101915050611757565b508180156117f25750805b611831576040517f08c379a000000000000000000000000000000000000000000000000000000000815260040161182890613441565b60405180910390fd5b856118e96040518060200160405280600081525060026000848152602001908152602001600020600101805461186690612d01565b80601f016020809104026020016040519081016040528092919081815260200182805461189290612d01565b80156118df5780601f106118b4576101008083540402835291602001916118df565b820191906000526020600020905b8154815290600101906020018083116118c257829003601f168201915b5050505050611d29565b15611929576040517f08c379a0000000000000000000000000000000000000000000000000000000008152600401611920906131d9565b60405180910390fd5b6002600088815260200190815260200160002060040160009054906101000a900460ff16801561196e5750426002600089815260200190815260200160002060030154115b6119ad576040517f08c379a00000000000000000000000000000000000000000000000000000000081526004016119a4906134ad565b60405180910390fd5b6000805b600260008a815260200190815260200160002060050180549050811015611bfe57611a9688600260008c815260200190815260200160002060050183815481106119fe576119fd612c40565b5b906000526020600020018054611a1390612d01565b80601f0160208091040260200160405190810160405280929190818152602001828054611a3f90612d01565b8015611a8c5780601f10611a6157610100808354040283529160200191611a8c565b820191906000526020600020905b815481529060010190602001808311611a6f57829003601f168201915b5050505050611d29565b15611bf157600260008a81526020019081526020016000206006018181548110611ac357611ac2612c40565b5b906000526020600020016000815480929190611ade90613111565b91905055506001600360008b815260200190815260200160002060003373ffffffffffffffffffffffffffffffffffffffff1673ffffffffffffffffffffffffffffffffffffffff16815260200190815260200160002060006101000a81548160ff0219169083151502179055506001600660008b815260200190815260200160002060008c604051602001611b74919061304c565b60405160208183030381529060405280519060200120815260200190815260200160002060006101000a81548160ff021916908315150217905550600191507f87ed54f97124098126086927aa595fbee5ef735a4debb13b63171c76c2b3ede68933604051611be492919061353f565b60405180910390a1611bfe565b80806001019150506119b1565b5080611c3f576040517f08c379a0000000000000000000000000000000000000000000000000000000008152600401611c36906135ed565b60405180910390fd5b6002600089815260200190815260200160002060070154611cc3600260008b8152602001908152602001600020600601805480602002602001604051908101604052809291908181526020018280548015611cb957602002820191906000526020600020905b815481526020019060010190808311611ca5575b5050505050611d82565b03611cf8576000600260008a815260200190815260200160002060040160006101000a81548160ff0219169083151502179055505b505050505050505050565b600160009054906101000a900473ffffffffffffffffffffffffffffffffffffffff1681565b600081604051602001611d3c919061304c565b6040516020818303038152906040528051906020012083604051602001611d63919061304c565b6040516020818303038152906040528051906020012014905092915050565b6000806000905060005b8351811015611dca57838181518110611da857611da7612c40565b5b602002602001015182611dbb9190612c9e565b91508080600101915050611d8c565b5080915050919050565b828054828255906000526020600020908101928215611e1c579160200282015b82811115611e1b578251829081611e0b9190612ede565b5091602001919060010190611df4565b5b509050611e299190611ec1565b5090565b828054828255906000526020600020908101928215611e69579160200282015b82811115611e68578251825591602001919060010190611e4d565b5b509050611e769190611ee5565b5090565b604051806101000160405280600081526020016060815260200160608152602001600081526020016000151581526020016060815260200160608152602001600081525090565b5b80821115611ee15760008181611ed89190611f02565b50600101611ec2565b5090565b5b80821115611efe576000816000905550600101611ee6565b5090565b508054611f0e90612d01565b6000825580601f10611f205750611f3f565b601f016020900490600052602060002090810190611f3e9190611ee5565b5b50565b6000604051905090565b600080fd5b600080fd5b600080fd5b600080fd5b6000601f19601f8301169050919050565b7f4e487b7100000000000000000000000000000000000000000000000000000000600052604160045260246000fd5b611fa982611f60565b810181811067ffffffffffffffff82111715611fc857611fc7611f71565b5b80604052505050565b6000611fdb611f42565b9050611fe78282611fa0565b919050565b600067ffffffffffffffff82111561200757612006611f71565b5b61201082611f60565b9050602081019050919050565b82818337600083830152505050565b600061203f61203a84611fec565b611fd1565b90508281526020810184848401111561205b5761205a611f5b565b5b61206684828561201d565b509392505050565b600082601f83011261208357612082611f56565b5b813561209384826020860161202c565b91505092915050565b600067ffffffffffffffff8211156120b7576120b6611f71565b5b602082029050602081019050919050565b600080fd5b60006120e06120db8461209c565b611fd1565b90508083825260208201905060208402830185811115612103576121026120c8565b5b835b8181101561214a57803567ffffffffffffffff81111561212857612127611f56565b5b808601612135898261206e565b85526020850194505050602081019050612105565b5050509392505050565b600082601f83011261216957612168611f56565b5b81356121798482602086016120cd565b91505092915050565b600067ffffffffffffffff82111561219d5761219c611f71565b5b602082029050602081019050919050565b600073ffffffffffffffffffffffffffffffffffffffff82169050919050565b60006121d9826121ae565b9050919050565b6121e9816121ce565b81146121f457600080fd5b50565b600081359050612206816121e0565b92915050565b600061221f61221a84612182565b611fd1565b90508083825260208201905060208402830185811115612242576122416120c8565b5b835b8181101561226b578061225788826121f7565b845260208401935050602081019050612244565b5050509392505050565b600082601f83011261228a57612289611f56565b5b813561229a84826020860161220c565b91505092915050565b600080600080600060a086880312156122bf576122be611f4c565b5b600086013567ffffffffffffffff8111156122dd576122dc611f51565b5b6122e98882890161206e565b955050602086013567ffffffffffffffff81111561230a57612309611f51565b5b6123168882890161206e565b945050604086013567ffffffffffffffff81111561233757612336611f51565b5b61234388828901612154565b935050606086013567ffffffffffffffff81111561236457612363611f51565b5b61237088828901612275565b925050608086013567ffffffffffffffff81111561239157612390611f51565b5b61239d88828901612154565b9150509295509295909350565b600081519050919050565b600082825260208201905092915050565b6000819050602082019050919050565b6000819050919050565b6123e9816123d6565b82525050565b600081519050919050565b600082825260208201905092915050565b60005b8381101561242957808201518184015260208101905061240e565b60008484015250505050565b6000612440826123ef565b61244a81856123fa565b935061245a81856020860161240b565b61246381611f60565b840191505092915050565b60008115159050919050565b6124838161246e565b82525050565b600081519050919050565b600082825260208201905092915050565b6000819050602082019050919050565b60006124c18383612435565b905092915050565b6000602082019050919050565b60006124e182612489565b6124eb8185612494565b9350836020820285016124fd856124a5565b8060005b85811015612539578484038952815161251a85826124b5565b9450612525836124c9565b925060208a01995050600181019050612501565b50829750879550505050505092915050565b600081519050919050565b600082825260208201905092915050565b6000819050602082019050919050565b600061258383836123e0565b60208301905092915050565b6000602082019050919050565b60006125a78261254b565b6125b18185612556565b93506125bc83612567565b8060005b838110156125ed5781516125d48882612577565b97506125df8361258f565b9250506001810190506125c0565b5085935050505092915050565b60006101008301600083015161261360008601826123e0565b506020830151848203602086015261262b8282612435565b915050604083015184820360408601526126458282612435565b915050606083015161265a60608601826123e0565b50608083015161266d608086018261247a565b5060a083015184820360a086015261268582826124d6565b91505060c083015184820360c086015261269f828261259c565b91505060e08301516126b460e08601826123e0565b508091505092915050565b60006126cb83836125fa565b905092915050565b6000602082019050919050565b60006126eb826123aa565b6126f581856123b5565b935083602082028501612707856123c6565b8060005b85811015612743578484038952815161272485826126bf565b945061272f836126d3565b925060208a0199505060018101905061270b565b50829750879550505050505092915050565b6000602082019050818103600083015261276f81846126e0565b905092915050565b612780816123d6565b811461278b57600080fd5b50565b60008135905061279d81612777565b92915050565b6000602082840312156127b9576127b8611f4c565b5b60006127c78482850161278e565b91505092915050565b6127d9816123d6565b82525050565b600082825260208201905092915050565b60006127fb826123ef565b61280581856127df565b935061281581856020860161240b565b61281e81611f60565b840191505092915050565b6128328161246e565b82525050565b600060c08201905061284d60008301896127d0565b818103602083015261285f81886127f0565b9050818103604083015261287381876127f0565b905061288260608301866127d0565b61288f6080830185612829565b61289c60a08301846127d0565b979650505050505050565b6000602082840312156128bd576128bc611f4c565b5b60006128cb848285016121f7565b91505092915050565b600082825260208201905092915050565b60006128f082612489565b6128fa81856128d4565b93508360208202850161290c856124a5565b8060005b85811015612948578484038952815161292985826124b5565b9450612934836124c9565b925060208a01995050600181019050612910565b50829750879550505050505092915050565b600082825260208201905092915050565b60006129768261254b565b612980818561295a565b935061298b83612567565b8060005b838110156129bc5781516129a38882612577565b97506129ae8361258f565b92505060018101905061298f565b5085935050505092915050565b600060408201905081810360008301526129e381856128e5565b905081810360208301526129f7818461296b565b90509392505050565b600061010083016000830151612a1960008601826123e0565b5060208301518482036020860152612a318282612435565b91505060408301518482036040860152612a4b8282612435565b9150506060830151612a6060608601826123e0565b506080830151612a73608086018261247a565b5060a083015184820360a0860152612a8b82826124d6565b91505060c083015184820360c0860152612aa5828261259c565b91505060e0830151612aba60e08601826123e0565b508091505092915050565b60006020820190508181036000830152612adf8184612a00565b905092915050565b600080600060608486031215612b0057612aff611f4c565b5b600084013567ffffffffffffffff811115612b1e57612b1d611f51565b5b612b2a8682870161206e565b9350506020612b3b8682870161278e565b925050604084013567ffffffffffffffff811115612b5c57612b5b611f51565b5b612b688682870161206e565b9150509250925092565b6000612b7d826121ae565b9050919050565b612b8d81612b72565b82525050565b6000602082019050612ba86000830184612b84565b92915050565b7f4f6e6c79206f776e65722063616e20706572666f726d2074686973206163746960008201527f6f6e000000000000000000000000000000000000000000000000000000000000602082015250565b6000612c0a6022836127df565b9150612c1582612bae565b604082019050919050565b60006020820190508181036000830152612c3981612bfd565b9050919050565b7f4e487b7100000000000000000000000000000000000000000000000000000000600052603260045260246000fd5b7f4e487b7100000000000000000000000000000000000000000000000000000000600052601160045260246000fd5b6000612ca9826123d6565b9150612cb4836123d6565b9250828201905080821115612ccc57612ccb612c6f565b5b92915050565b7f4e487b7100000000000000000000000000000000000000000000000000000000600052602260045260246000fd5b60006002820490506001821680612d1957607f821691505b602082108103612d2c57612d2b612cd2565b5b50919050565b60008190508160005260206000209050919050565b60006020601f8301049050919050565b600082821b905092915050565b600060088302612d947fffffffffffffffffffffffffffffffffffffffffffffffffffffffffffffffff82612d57565b612d9e8683612d57565b95508019841693508086168417925050509392505050565b6000819050919050565b6000612ddb612dd6612dd1846123d6565b612db6565b6123d6565b9050919050565b6000819050919050565b612df583612dc0565b612e09612e0182612de2565b848454612d64565b825550505050565b600090565b612e1e612e11565b612e29818484612dec565b505050565b5b81811015612e4d57612e42600082612e16565b600181019050612e2f565b5050565b601f821115612e9257612e6381612d32565b612e6c84612d47565b81016020851015612e7b578190505b612e8f612e8785612d47565b830182612e2e565b50505b505050565b600082821c905092915050565b6000612eb560001984600802612e97565b1980831691505092915050565b6000612ece8383612ea4565b9150826002028217905092915050565b612ee7826123ef565b67ffffffffffffffff811115612f0057612eff611f71565b5b612f0a8254612d01565b612f15828285612e51565b600060209050601f831160018114612f485760008415612f36578287015190505b612f408582612ec2565b865550612fa8565b601f198416612f5686612d32565b60005b82811015612f7e57848901518255600182019150602085019450602081019050612f59565b86831015612f9b5784890151612f97601f891682612ea4565b8355505b6001600288020188555050505b505050505050565b7f4e487b7100000000000000000000000000000000000000000000000000000000600052601260045260246000fd5b6000612fea826123d6565b9150612ff5836123d6565b92508261300557613004612fb0565b5b828204905092915050565b600081905092915050565b6000613026826123ef565b6130308185613010565b935061304081856020860161240b565b80840191505092915050565b6000613058828461301b565b915081905092915050565b7f54686520656c656374696f6e20686173206265656e206372656174656420737560008201527f636365737366756c6c7900000000000000000000000000000000000000000000602082015250565b60006130bf602a836127df565b91506130ca82613063565b604082019050919050565b60006060820190506130ea60008301856127d0565b6130f76020830184612b84565b8181036040830152613108816130b2565b90509392505050565b600061311c826123d6565b91507fffffffffffffffffffffffffffffffffffffffffffffffffffffffffffffffff820361314e5761314d612c6f565b5b600182019050919050565b6000613164826123d6565b915061316f836123d6565b925082820390508181111561318757613186612c6f565b5b92915050565b7f4e6f207375636820656c656374696f6e20657869737400000000000000000000600082015250565b60006131c36016836127df565b91506131ce8261318d565b602082019050919050565b600060208201905081810360008301526131f2816131b6565b9050919050565b7f54686520656c656374696f6e206973207374696c6c206f6e676f696e672e0000600082015250565b600061322f601e836127df565b915061323a826131f9565b602082019050919050565b6000602082019050818103600083015261325e81613222565b9050919050565b7f456c656374696f6e2068617320616c726561647920656e646564000000000000600082015250565b600061329b601a836127df565b91506132a682613265565b602082019050919050565b600060208201905081810360008301526132ca8161328e565b9050919050565b7f41646d696e2063616e6e6f7420706172746963697061746520696e207468652060008201527f656c656374696f6e000000000000000000000000000000000000000000000000602082015250565b600061332d6028836127df565b9150613338826132d1565b604082019050919050565b6000602082019050818103600083015261335c81613320565b9050919050565b7f596f75206861766520616c726561647920766f74656400000000000000000000600082015250565b60006133996016836127df565b91506133a482613363565b602082019050919050565b600060208201905081810360008301526133c88161338c565b9050919050565b7f5468697320616363636f756e74206973206e6f7420616c6c6f77656420746f2060008201527f766f746520696e2063757272656e7420656c656374696f6e0000000000000000602082015250565b600061342b6038836127df565b9150613436826133cf565b604082019050919050565b6000602082019050818103600083015261345a8161341e565b9050919050565b7f54686520656c656374696f6e2068617320616c726561647920656e6465640000600082015250565b6000613497601e836127df565b91506134a282613461565b602082019050919050565b600060208201905081810360008301526134c68161348a565b9050919050565b7f54686520766f746520686173206265656e2073756363657366756c6c7920726560008201527f6769737465726564000000000000000000000000000000000000000000000000602082015250565b60006135296028836127df565b9150613534826134cd565b604082019050919050565b600060608201905061355460008301856127d0565b6135616020830184612b84565b81810360408301526135728161351c565b90509392505050565b7f4e6f20737563682063616e64696461746520657869737420666f72207468697360008201527f20656c656374696f6e0000000000000000000000000000000000000000000000602082015250565b60006135d76029836127df565b91506135e28261357b565b604082019050919050565b60006020820190508181036000830152613606816135ca565b905091905056fea26469706673582212204dcef3d646973416d6281d70e1217f50ae14bcd2841ff37fbbd370e92edd18dc64736f6c63430008180033",
  "linkReferences": {},
  "deployedLinkReferences": {}
}